{
  "contractName": "Ossm",
  "abi": [
    {
      "constant": true,
      "inputs": [
        {
          "name": "",
          "type": "uint256"
        }
      ],
      "name": "posts",
      "outputs": [
        {
          "name": "projectName",
          "type": "string"
        },
        {
          "name": "githubLink",
          "type": "string"
        },
        {
          "name": "youtubeLink",
          "type": "string"
        },
        {
          "name": "postOwner",
          "type": "address"
        },
        {
          "name": "totalReviewers",
          "type": "uint256"
        },
        {
          "name": "points",
          "type": "uint256"
        }
      ],
      "payable": false,
      "stateMutability": "view",
      "type": "function"
    },
    {
      "constant": true,
      "inputs": [],
      "name": "postCount",
      "outputs": [
        {
          "name": "",
          "type": "uint256"
        }
      ],
      "payable": false,
      "stateMutability": "view",
      "type": "function"
    },
    {
      "constant": true,
      "inputs": [],
      "name": "nam",
      "outputs": [
        {
          "name": "",
          "type": "string"
        }
      ],
      "payable": false,
      "stateMutability": "view",
      "type": "function"
    },
    {
      "inputs": [],
      "payable": false,
      "stateMutability": "nonpayable",
      "type": "constructor"
    },
    {
      "constant": false,
      "inputs": [
        {
          "name": "_projectName",
          "type": "string"
        },
        {
          "name": "_githubLink",
          "type": "string"
        },
        {
          "name": "_youtubeLink",
          "type": "string"
        }
      ],
      "name": "createPost",
      "outputs": [],
      "payable": false,
      "stateMutability": "nonpayable",
      "type": "function"
    },
    {
      "constant": false,
      "inputs": [
        {
          "name": "postnum",
          "type": "uint256"
        },
        {
          "name": "rating",
          "type": "uint256"
        }
      ],
      "name": "ratePost",
      "outputs": [],
      "payable": false,
      "stateMutability": "nonpayable",
      "type": "function"
    },
    {
      "constant": false,
      "inputs": [],
      "name": "initialiseNewUser",
      "outputs": [],
      "payable": false,
      "stateMutability": "nonpayable",
      "type": "function"
    },
    {
      "constant": false,
      "inputs": [
        {
          "name": "n",
          "type": "string"
        }
      ],
      "name": "inputUserName",
      "outputs": [],
      "payable": false,
      "stateMutability": "nonpayable",
      "type": "function"
    },
    {
      "constant": true,
      "inputs": [
        {
          "name": "a",
          "type": "address"
        }
      ],
      "name": "getProfile",
      "outputs": [
        {
          "name": "id",
          "type": "address"
        },
        {
          "name": "user_name",
          "type": "string"
        },
        {
          "name": "coin",
          "type": "uint256"
        },
        {
          "name": "points",
          "type": "uint256"
        }
      ],
      "payable": false,
      "stateMutability": "view",
      "type": "function"
    }
  ],
  "bytecode": "0x608060405260006001553480156200001657600080fd5b506040518060400160405280600c81526020017f50726f6a656374204f73736d0000000000000000000000000000000000000000815250600090805190602001906200006492919062000695565b50620000756200012d60201b60201c565b620001276040518060400160405280600e81526020017f50726f6a656374204f53534d21210000000000000000000000000000000000008152506040518060400160405280600e81526020017f7777772e6769746875622e636f6d0000000000000000000000000000000000008152506040518060400160405280600f81526020017f7777772e796f75747562652e636f6d00000000000000000000000000000000008152506200035f60201b60201c565b620007cb565b60001515600460003373ffffffffffffffffffffffffffffffffffffffff1673ffffffffffffffffffffffffffffffffffffffff16815260200190815260200160002060009054906101000a900460ff16151514620001f4576040517f08c379a00000000000000000000000000000000000000000000000000000000081526004018080602001828103825260138152602001807f5573657220616c7265616479206578697374730000000000000000000000000081525060200191505060405180910390fd5b6001600460003373ffffffffffffffffffffffffffffffffffffffff1673ffffffffffffffffffffffffffffffffffffffff16815260200190815260200160002060006101000a81548160ff021916908315150217905550600a600360003373ffffffffffffffffffffffffffffffffffffffff1673ffffffffffffffffffffffffffffffffffffffff168152602001908152602001600020600201819055506000600360003373ffffffffffffffffffffffffffffffffffffffff1673ffffffffffffffffffffffffffffffffffffffff1681526020019081526020016000206003018190555033600360003373ffffffffffffffffffffffffffffffffffffffff1673ffffffffffffffffffffffffffffffffffffffff16815260200190815260200160002060000160006101000a81548173ffffffffffffffffffffffffffffffffffffffff021916908373ffffffffffffffffffffffffffffffffffffffff160217905550565b6000835111620003d7576040517f08c379a000000000000000000000000000000000000000000000000000000000815260040180806020018281038252601e8152602001807f426c616e6b2050726f6a656374204e616d65206e6f7420616c6c6f776564000081525060200191505060405180910390fd5b60008251116200044f576040517f08c379a000000000000000000000000000000000000000000000000000000000815260040180806020018281038252601d8152602001807f426c616e6b20476974687562204c696e6b206e6f7420616c6c6f77656400000081525060200191505060405180910390fd5b6000815111620004c7576040517f08c379a000000000000000000000000000000000000000000000000000000000815260040180806020018281038252601e8152602001807f426c616e6b20596f7574756265204c696e6b206e6f7420616c6c6f776564000081525060200191505060405180910390fd5b6001600081548092919060010191905055506040518060c001604052808481526020018381526020018281526020013373ffffffffffffffffffffffffffffffffffffffff1681526020016000815260200160008152506002600060015481526020019081526020016000206000820151816000019080519060200190620005519291906200071c565b506020820151816001019080519060200190620005709291906200071c565b5060408201518160020190805190602001906200058f9291906200071c565b5060608201518160030160006101000a81548173ffffffffffffffffffffffffffffffffffffffff021916908373ffffffffffffffffffffffffffffffffffffffff1602179055506080820151816004015560a08201518160050155905050600a600360003373ffffffffffffffffffffffffffffffffffffffff1673ffffffffffffffffffffffffffffffffffffffff16815260200190815260200160002060020160008282540192505081905550600a600360003373ffffffffffffffffffffffffffffffffffffffff1673ffffffffffffffffffffffffffffffffffffffff16815260200190815260200160002060030160008282540192505081905550505050565b828054600181600116156101000203166002900490600052602060002090601f016020900481019282601f10620006d857805160ff191683800117855562000709565b8280016001018555821562000709579182015b8281111562000708578251825591602001919060010190620006eb565b5b509050620007189190620007a3565b5090565b828054600181600116156101000203166002900490600052602060002090601f016020900481019282601f106200075f57805160ff191683800117855562000790565b8280016001018555821562000790579182015b828111156200078f57825182559160200191906001019062000772565b5b5090506200079f9190620007a3565b5090565b620007c891905b80821115620007c4576000816000905550600101620007aa565b5090565b90565b61167b80620007db6000396000f3fe608060405234801561001057600080fd5b50600436106100885760003560e01c80638694dab61161005b5780638694dab6146103a15780638ae303d9146103ab5780639af9bec014610466578063e8a4a1eb146104e957610088565b80630b1e7f831461008d5780630f53a4701461024d57806313f27c661461034b57806317906c2e14610383575b600080fd5b6100b9600480360360208110156100a357600080fd5b81019080803590602001909291905050506106d2565b604051808060200180602001806020018773ffffffffffffffffffffffffffffffffffffffff1673ffffffffffffffffffffffffffffffffffffffff16815260200186815260200185815260200184810384528a818151815260200191508051906020019080838360005b8381101561013f578082015181840152602081019050610124565b50505050905090810190601f16801561016c5780820380516001836020036101000a031916815260200191505b50848103835289818151815260200191508051906020019080838360005b838110156101a557808201518184015260208101905061018a565b50505050905090810190601f1680156101d25780820380516001836020036101000a031916815260200191505b50848103825288818151815260200191508051906020019080838360005b8381101561020b5780820151818401526020810190506101f0565b50505050905090810190601f1680156102385780820380516001836020036101000a031916815260200191505b50995050505050505050505060405180910390f35b61028f6004803603602081101561026357600080fd5b81019080803573ffffffffffffffffffffffffffffffffffffffff1690602001909291905050506108f6565b604051808573ffffffffffffffffffffffffffffffffffffffff1673ffffffffffffffffffffffffffffffffffffffff16815260200180602001848152602001838152602001828103825285818151815260200191508051906020019080838360005b8381101561030d5780820151818401526020810190506102f2565b50505050905090810190601f16801561033a5780820380516001836020036101000a031916815260200191505b509550505050505060405180910390f35b6103816004803603604081101561036157600080fd5b810190808035906020019092919080359060200190929190505050610ad3565b005b61038b610dbe565b6040518082815260200191505060405180910390f35b6103a9610dc4565b005b610464600480360360208110156103c157600080fd5b81019080803590602001906401000000008111156103de57600080fd5b8201836020820111156103f057600080fd5b8035906020019184600183028401116401000000008311171561041257600080fd5b91908080601f016020809104026020016040519081016040528093929190818152602001838380828437600081840152601f19601f820116905080830192505050505050509192919290505050610ff5565b005b61046e611115565b6040518080602001828103825283818151815260200191508051906020019080838360005b838110156104ae578082015181840152602081019050610493565b50505050905090810190601f1680156104db5780820380516001836020036101000a031916815260200191505b509250505060405180910390f35b6106d0600480360360608110156104ff57600080fd5b810190808035906020019064010000000081111561051c57600080fd5b82018360208201111561052e57600080fd5b8035906020019184600183028401116401000000008311171561055057600080fd5b91908080601f016020809104026020016040519081016040528093929190818152602001838380828437600081840152601f19601f820116905080830192505050505050509192919290803590602001906401000000008111156105b357600080fd5b8201836020820111156105c557600080fd5b803590602001918460018302840111640100000000831117156105e757600080fd5b91908080601f016020809104026020016040519081016040528093929190818152602001838380828437600081840152601f19601f8201169050808301925050505050505091929192908035906020019064010000000081111561064a57600080fd5b82018360208201111561065c57600080fd5b8035906020019184600183028401116401000000008311171561067e57600080fd5b91908080601f016020809104026020016040519081016040528093929190818152602001838380828437600081840152601f19601f8201169050808301925050505050505091929192905050506111b3565b005b6002602052806000526040600020600091509050806000018054600181600116156101000203166002900480601f01602080910402602001604051908101604052809291908181526020018280546001816001161561010002031660029004801561077e5780601f106107535761010080835404028352916020019161077e565b820191906000526020600020905b81548152906001019060200180831161076157829003601f168201915b505050505090806001018054600181600116156101000203166002900480601f01602080910402602001604051908101604052809291908181526020018280546001816001161561010002031660029004801561081c5780601f106107f15761010080835404028352916020019161081c565b820191906000526020600020905b8154815290600101906020018083116107ff57829003601f168201915b505050505090806002018054600181600116156101000203166002900480601f0160208091040260200160405190810160405280929190818152602001828054600181600116156101000203166002900480156108ba5780601f1061088f576101008083540402835291602001916108ba565b820191906000526020600020905b81548152906001019060200180831161089d57829003601f168201915b5050505050908060030160009054906101000a900473ffffffffffffffffffffffffffffffffffffffff16908060040154908060050154905086565b60006060600080600360008673ffffffffffffffffffffffffffffffffffffffff1673ffffffffffffffffffffffffffffffffffffffff16815260200190815260200160002060000160009054906101000a900473ffffffffffffffffffffffffffffffffffffffff16600360008773ffffffffffffffffffffffffffffffffffffffff1673ffffffffffffffffffffffffffffffffffffffff168152602001908152602001600020600101600360008873ffffffffffffffffffffffffffffffffffffffff1673ffffffffffffffffffffffffffffffffffffffff16815260200190815260200160002060020154600360008973ffffffffffffffffffffffffffffffffffffffff1673ffffffffffffffffffffffffffffffffffffffff16815260200190815260200160002060030154828054600181600116156101000203166002900480601f016020809104026020016040519081016040528092919081815260200182805460018160011615610100020316600290048015610abd5780601f10610a9257610100808354040283529160200191610abd565b820191906000526020600020905b815481529060010190602001808311610aa057829003601f168201915b5050505050925093509350935093509193509193565b6000600360003373ffffffffffffffffffffffffffffffffffffffff1673ffffffffffffffffffffffffffffffffffffffff1681526020019081526020016000206002015411610b6e576040517f08c379a000000000000000000000000000000000000000000000000000000000815260040180806020018281038252604a815260200180611606604a913960600191505060405180910390fd5b3373ffffffffffffffffffffffffffffffffffffffff166002600084815260200190815260200160002060030160009054906101000a900473ffffffffffffffffffffffffffffffffffffffff1673ffffffffffffffffffffffffffffffffffffffff161415610c46576040517f08c379a00000000000000000000000000000000000000000000000000000000081526004018080602001828103825260208152602001807f596f752063616e6e6f74207261746520796f7572206f776e2070726f6a65637481525060200191505060405180910390fd5b600360003373ffffffffffffffffffffffffffffffffffffffff1673ffffffffffffffffffffffffffffffffffffffff16815260200190815260200160002060020160008154809291906001900391905055506005600360003373ffffffffffffffffffffffffffffffffffffffff1673ffffffffffffffffffffffffffffffffffffffff16815260200190815260200160002060030160008282540192505081905550600260008381526020019081526020016000206004016000815480929190600101919050555080600260008481526020019081526020016000206005016000828254019250508190555080600360006002600086815260200190815260200160002060030160009054906101000a900473ffffffffffffffffffffffffffffffffffffffff1673ffffffffffffffffffffffffffffffffffffffff1673ffffffffffffffffffffffffffffffffffffffff168152602001908152602001600020600301600082825401925050819055505050565b60015481565b60001515600460003373ffffffffffffffffffffffffffffffffffffffff1673ffffffffffffffffffffffffffffffffffffffff16815260200190815260200160002060009054906101000a900460ff16151514610e8a576040517f08c379a00000000000000000000000000000000000000000000000000000000081526004018080602001828103825260138152602001807f5573657220616c7265616479206578697374730000000000000000000000000081525060200191505060405180910390fd5b6001600460003373ffffffffffffffffffffffffffffffffffffffff1673ffffffffffffffffffffffffffffffffffffffff16815260200190815260200160002060006101000a81548160ff021916908315150217905550600a600360003373ffffffffffffffffffffffffffffffffffffffff1673ffffffffffffffffffffffffffffffffffffffff168152602001908152602001600020600201819055506000600360003373ffffffffffffffffffffffffffffffffffffffff1673ffffffffffffffffffffffffffffffffffffffff1681526020019081526020016000206003018190555033600360003373ffffffffffffffffffffffffffffffffffffffff1673ffffffffffffffffffffffffffffffffffffffff16815260200190815260200160002060000160006101000a81548173ffffffffffffffffffffffffffffffffffffffff021916908373ffffffffffffffffffffffffffffffffffffffff160217905550565b60001515600460003373ffffffffffffffffffffffffffffffffffffffff1673ffffffffffffffffffffffffffffffffffffffff16815260200190815260200160002060009054906101000a900460ff161515146110bb576040517f08c379a00000000000000000000000000000000000000000000000000000000081526004018080602001828103825260138152602001807f5573657220616c7265616479206578697374730000000000000000000000000081525060200191505060405180910390fd5b80600360003373ffffffffffffffffffffffffffffffffffffffff1673ffffffffffffffffffffffffffffffffffffffff16815260200190815260200160002060010190805190602001906111119291906114e0565b5050565b60008054600181600116156101000203166002900480601f0160208091040260200160405190810160405280929190818152602001828054600181600116156101000203166002900480156111ab5780601f10611180576101008083540402835291602001916111ab565b820191906000526020600020905b81548152906001019060200180831161118e57829003601f168201915b505050505081565b600083511161122a576040517f08c379a000000000000000000000000000000000000000000000000000000000815260040180806020018281038252601e8152602001807f426c616e6b2050726f6a656374204e616d65206e6f7420616c6c6f776564000081525060200191505060405180910390fd5b60008251116112a1576040517f08c379a000000000000000000000000000000000000000000000000000000000815260040180806020018281038252601d8152602001807f426c616e6b20476974687562204c696e6b206e6f7420616c6c6f77656400000081525060200191505060405180910390fd5b6000815111611318576040517f08c379a000000000000000000000000000000000000000000000000000000000815260040180806020018281038252601e8152602001807f426c616e6b20596f7574756265204c696e6b206e6f7420616c6c6f776564000081525060200191505060405180910390fd5b6001600081548092919060010191905055506040518060c001604052808481526020018381526020018281526020013373ffffffffffffffffffffffffffffffffffffffff16815260200160008152602001600081525060026000600154815260200190815260200160002060008201518160000190805190602001906113a0929190611560565b5060208201518160010190805190602001906113bd929190611560565b5060408201518160020190805190602001906113da929190611560565b5060608201518160030160006101000a81548173ffffffffffffffffffffffffffffffffffffffff021916908373ffffffffffffffffffffffffffffffffffffffff1602179055506080820151816004015560a08201518160050155905050600a600360003373ffffffffffffffffffffffffffffffffffffffff1673ffffffffffffffffffffffffffffffffffffffff16815260200190815260200160002060020160008282540192505081905550600a600360003373ffffffffffffffffffffffffffffffffffffffff1673ffffffffffffffffffffffffffffffffffffffff16815260200190815260200160002060030160008282540192505081905550505050565b828054600181600116156101000203166002900490600052602060002090601f016020900481019282601f1061152157805160ff191683800117855561154f565b8280016001018555821561154f579182015b8281111561154e578251825591602001919060010190611533565b5b50905061155c91906115e0565b5090565b828054600181600116156101000203166002900490600052602060002090601f016020900481019282601f106115a157805160ff19168380011785556115cf565b828001600101855582156115cf579182015b828111156115ce5782518255916020019190600101906115b3565b5b5090506115dc91906115e0565b5090565b61160291905b808211156115fe5760008160009055506001016115e6565b5090565b9056fe596f7520617265206f7574206f662062616c616e63652c2055706c6f61642061206e65772070726f6a65637420746f2067657420313020636f696e7320616e64206265204f53534d2121a165627a7a723058208c14ee19121e413432369480ace92b1a5ec17aadb4e279837a0be70d783d8c8a0029",
  "source": "pragma solidity ^0.5.0;\n\ncontract Ossm{\n\n    string public nam;\n\n    constructor() public {\n        nam = \"Project Ossm\";\n        initialiseNewUser();\n        createPost(\"Project OSSM!!\",\"www.github.com\", \"www.youtube.com\");\n    }\n\n    uint public postCount  = 0;\n    mapping (uint => Post) public posts;\n\n    struct Post{\n        string projectName; //Title of the project\n        string githubLink; //Github Link of the project\n        string youtubeLink;//Youtube link of the project\n        address postOwner;  // Address of the owner of this post\n        uint totalReviewers; // Total number of users who have reviewed this post\n        uint points;    // Total point received by this post\n    }\n\n    function createPost(string memory _projectName, string memory _githubLink, string memory _youtubeLink) public{\n        require(bytes(_projectName).length > 0, \"Blank Project Name not allowed\");\n        require(bytes(_githubLink).length > 0, \"Blank Github Link not allowed\");\n        require(bytes(_youtubeLink).length > 0, \"Blank Youtube Link not allowed\");\n        postCount++;\n        posts[postCount] = Post(_projectName, _githubLink, _youtubeLink, msg.sender, 0, 0);\n        profile[msg.sender].coin += 10;\n        profile[msg.sender].points += 10;\n    }\n\n    modifier checkCoinBalance(){\n        require(profile[msg.sender].coin>0, \"You are out of balance, Upload a new project to get 10 coins and be OSSM!!\");\n        _;\n    }\n\n    function ratePost(uint postnum, uint rating) public checkCoinBalance{\n        require(posts[postnum].postOwner != msg.sender, \"You cannot rate your own project\");\n        profile[msg.sender].coin--;\n        profile[msg.sender].points += 5;\n        posts[postnum].totalReviewers++;\n        posts[postnum].points += rating;\n        profile[posts[postnum].postOwner].points += rating;\n    }\n//-------------------------------------------------------------------------------------------------------------------------\n    // Creating a struct for each user with 4 attributes:\n     struct User {\n        address id;\n        string userName;\n        uint coin;\n        uint points;\n    }\n    //Mapping the user struct for every address, hence creating a profile\n    mapping (address => User) profile;\n\n    //Mapping to check if new user or existing user\n    mapping (address =>bool) exists;\n\n    //Modifier to use the \"exists\" mapping\n    modifier checkNewUser(){\n        require(exists[msg.sender] == false, \"User already exists\");\n        _;\n    }\n\n    //Initializing new user with 10 freely earned coins\n    function initialiseNewUser() public checkNewUser {\n            exists[msg.sender] = true;\n            profile[msg.sender].coin = 10;\n            profile[msg.sender].points = 0;\n            profile[msg.sender].id = msg.sender;\n        }\n    //Allowing the new user to enter his/her username\n    function inputUserName(string memory n) public checkNewUser {\n        profile[msg.sender].userName = n;\n    }\n\n\n    //Array containing all the posts to be displayed on the \"wall\"\n    //post[] public getPosts; // randomize thru front-end\n\n    //Get user profile with all 4 attributes\n    function getProfile(address a) public view returns (address id, string memory user_name, uint coin, uint points){\n        return (profile[a].id, profile[a].userName, profile[a].coin, profile[a].points);\n    }\n}\n",
  "sourcePath": "/home/arjun/blockchain/ossm/src/contracts/Ossm.sol",
  "compiler": {
    "name": "solc",
    "version": "0.5.8+commit.23d335f2.Emscripten.clang"
  },
  "schemaVersion": "3.0.11",
  "updatedAt": "2019-10-12T05:16:12.450Z",
  "devdoc": {
    "methods": {}
  },
  "userdoc": {
    "methods": {}
  }
}